:040000008A11FD2F35
:100F4A0083160313051107108710071186128613DB
:100F5A00871107120800F000700883120313930028
:100F6A0083160313141CB52F8312031313080800E6
:100F7A00831203179E019F01831603130616871314
:100F8A0006170717831203139F0194124030831622
:100F9A0003139400343083120313940008000230C0
:100FAA00F1007108F2000330F1007108F3008A11B0
:100FBA00BD278A118A11A5278A11831603131418CB
:100FCA00EF2F00308A11B0278A11E22F00308A11E0
:100FDA00B0278A11831603131418F82FEB2FA330A6
:100FEA008A11B0278A11831603131418E22FF42FDB
:060FFA0083018A11D42FCF
:02400E00F5FBC0
:00000001FF
